{
  "contractName": "VSElection",
  "abi": [
    {
      "inputs": [],
      "payable": false,
      "stateMutability": "nonpayable",
      "type": "constructor"
    },
    {
      "anonymous": false,
      "inputs": [
        {
          "indexed": false,
          "internalType": "string",
          "name": "name",
          "type": "string"
        },
        {
          "indexed": false,
          "internalType": "uint256",
          "name": "voteCount",
          "type": "uint256"
        }
      ],
      "name": "VSElectionResult",
      "type": "event"
    },
    {
      "constant": true,
      "inputs": [
        {
          "internalType": "uint256",
          "name": "",
          "type": "uint256"
        }
      ],
      "name": "bracket",
      "outputs": [
        {
          "internalType": "string",
          "name": "name",
          "type": "string"
        },
        {
          "internalType": "uint256",
          "name": "voteCount",
          "type": "uint256"
        },
        {
          "internalType": "bool",
          "name": "isLoser",
          "type": "bool"
        },
        {
          "internalType": "bool",
          "name": "isEliminated",
          "type": "bool"
        }
      ],
      "payable": false,
      "stateMutability": "view",
      "type": "function"
    },
    {
      "constant": true,
      "inputs": [
        {
          "internalType": "uint256",
          "name": "",
          "type": "uint256"
        }
      ],
      "name": "candidates",
      "outputs": [
        {
          "internalType": "string",
          "name": "name",
          "type": "string"
        },
        {
          "internalType": "uint256",
          "name": "voteCount",
          "type": "uint256"
        },
        {
          "internalType": "bool",
          "name": "isLoser",
          "type": "bool"
        },
        {
          "internalType": "bool",
          "name": "isEliminated",
          "type": "bool"
        }
      ],
      "payable": false,
      "stateMutability": "view",
      "type": "function"
    },
    {
      "constant": true,
      "inputs": [],
      "name": "name",
      "outputs": [
        {
          "internalType": "string",
          "name": "",
          "type": "string"
        }
      ],
      "payable": false,
      "stateMutability": "view",
      "type": "function"
    },
    {
      "constant": true,
      "inputs": [],
      "name": "owner",
      "outputs": [
        {
          "internalType": "address",
          "name": "",
          "type": "address"
        }
      ],
      "payable": false,
      "stateMutability": "view",
      "type": "function"
    },
    {
      "constant": true,
      "inputs": [
        {
          "internalType": "address",
          "name": "",
          "type": "address"
        }
      ],
      "name": "voters",
      "outputs": [
        {
          "internalType": "bool",
          "name": "hasVoted",
          "type": "bool"
        },
        {
          "internalType": "uint256",
          "name": "voteIndex",
          "type": "uint256"
        },
        {
          "internalType": "uint256",
          "name": "weight",
          "type": "uint256"
        }
      ],
      "payable": false,
      "stateMutability": "view",
      "type": "function"
    },
    {
      "constant": false,
      "inputs": [
        {
          "internalType": "string",
          "name": "_name",
          "type": "string"
        }
      ],
      "name": "addCandidate",
      "outputs": [],
      "payable": false,
      "stateMutability": "nonpayable",
      "type": "function"
    },
    {
      "constant": false,
      "inputs": [
        {
          "internalType": "address",
          "name": "voter",
          "type": "address"
        }
      ],
      "name": "authorize",
      "outputs": [],
      "payable": false,
      "stateMutability": "nonpayable",
      "type": "function"
    },
    {
      "constant": false,
      "inputs": [
        {
          "internalType": "uint256",
          "name": "voteIndex",
          "type": "uint256"
        }
      ],
      "name": "vote",
      "outputs": [],
      "payable": false,
      "stateMutability": "nonpayable",
      "type": "function"
    },
    {
      "constant": false,
      "inputs": [],
      "name": "end",
      "outputs": [],
      "payable": false,
      "stateMutability": "nonpayable",
      "type": "function"
    },
    {
      "constant": false,
      "inputs": [],
      "name": "startElection",
      "outputs": [],
      "payable": false,
      "stateMutability": "nonpayable",
      "type": "function"
    }
  ],
  "bytecode": "0x60806040526000600a553480156200001657600080fd5b50336000806101000a81548173ffffffffffffffffffffffffffffffffffffffff021916908373ffffffffffffffffffffffffffffffffffffffff1602179055506040518060400160405280600681526020017f77696e6e6572000000000000000000000000000000000000000000000000000081525060019080519060200190620000a4929190620000ab565b506200015a565b828054600181600116156101000203166002900490600052602060002090601f016020900481019282601f10620000ee57805160ff19168380011785556200011f565b828001600101855582156200011f579182015b828111156200011e57825182559160200191906001019062000101565b5b5090506200012e919062000132565b5090565b6200015791905b808211156200015357600081600090555060010162000139565b5090565b90565b6120e3806200016a6000396000f3fe608060405234801561001057600080fd5b506004361061009e5760003560e01c80638da5cb5b116100665780638da5cb5b146102dd5780639769474e14610327578063a3ec138d146103eb578063b6a5d7de14610455578063efbe1c1c146104995761009e565b80630121b93f146100a357806306fdde03146100d15780633477ee2e14610154578063462e91ec1461021857806362d73eb8146102d3575b600080fd5b6100cf600480360360208110156100b957600080fd5b81019080803590602001909291905050506104a3565b005b6100d961067a565b6040518080602001828103825283818151815260200191508051906020019080838360005b838110156101195780820151818401526020810190506100fe565b50505050905090810190601f1680156101465780820380516001836020036101000a031916815260200191505b509250505060405180910390f35b6101806004803603602081101561016a57600080fd5b8101908080359060200190929190505050610718565b60405180806020018581526020018415151515815260200183151515158152602001828103825286818151815260200191508051906020019080838360005b838110156101da5780820151818401526020810190506101bf565b50505050905090810190601f1680156102075780820380516001836020036101000a031916815260200191505b509550505050505060405180910390f35b6102d16004803603602081101561022e57600080fd5b810190808035906020019064010000000081111561024b57600080fd5b82018360208201111561025d57600080fd5b8035906020019184600183028401116401000000008311171561027f57600080fd5b91908080601f016020809104026020016040519081016040528093929190818152602001838380828437600081840152601f19601f820116905080830192505050505050509192919290505050610807565b005b6102db610922565b005b6102e561094f565b604051808273ffffffffffffffffffffffffffffffffffffffff1673ffffffffffffffffffffffffffffffffffffffff16815260200191505060405180910390f35b6103536004803603602081101561033d57600080fd5b8101908080359060200190929190505050610974565b60405180806020018581526020018415151515815260200183151515158152602001828103825286818151815260200191508051906020019080838360005b838110156103ad578082015181840152602081019050610392565b50505050905090810190601f1680156103da5780820380516001836020036101000a031916815260200191505b509550505050505060405180910390f35b61042d6004803603602081101561040157600080fd5b81019080803573ffffffffffffffffffffffffffffffffffffffff169060200190929190505050610a63565b6040518084151515158152602001838152602001828152602001935050505060405180910390f35b6104976004803603602081101561046b57600080fd5b81019080803573ffffffffffffffffffffffffffffffffffffffff169060200190929190505050610a9a565b005b6104a1610bfe565b005b600260003373ffffffffffffffffffffffffffffffffffffffff1673ffffffffffffffffffffffffffffffffffffffff16815260200190815260200160002060000160009054906101000a900460ff16156104fd57600080fd5b6001600260003373ffffffffffffffffffffffffffffffffffffffff1673ffffffffffffffffffffffffffffffffffffffff16815260200190815260200160002060020154101561054d57600080fd5b600960009054906101000a900460ff161561056757600080fd5b6001600260003373ffffffffffffffffffffffffffffffffffffffff1673ffffffffffffffffffffffffffffffffffffffff16815260200190815260200160002060000160006101000a81548160ff02191690831515021790555080600260003373ffffffffffffffffffffffffffffffffffffffff1673ffffffffffffffffffffffffffffffffffffffff16815260200190815260200160002060010181905550600260003373ffffffffffffffffffffffffffffffffffffffff1673ffffffffffffffffffffffffffffffffffffffff168152602001908152602001600020600201546004828154811061065957fe5b90600052602060002090600302016001016000828254019250508190555050565b60018054600181600116156101000203166002900480601f0160208091040260200160405190810160405280929190818152602001828054600181600116156101000203166002900480156107105780601f106106e557610100808354040283529160200191610710565b820191906000526020600020905b8154815290600101906020018083116106f357829003601f168201915b505050505081565b6004818154811061072557fe5b9060005260206000209060030201600091509050806000018054600181600116156101000203166002900480601f0160208091040260200160405190810160405280929190818152602001828054600181600116156101000203166002900480156107d15780601f106107a6576101008083540402835291602001916107d1565b820191906000526020600020905b8154815290600101906020018083116107b457829003601f168201915b5050505050908060010154908060020160009054906101000a900460ff16908060020160019054906101000a900460ff16905084565b6000809054906101000a900473ffffffffffffffffffffffffffffffffffffffff1673ffffffffffffffffffffffffffffffffffffffff163373ffffffffffffffffffffffffffffffffffffffff161461086057600080fd5b6004604051806080016040528083815260200160008152602001600015158152602001600015158152509080600181540180825580915050906001820390600052602060002090600302016000909192909190915060008201518160000190805190602001906108d1929190611e0b565b506020820151816001015560408201518160020160006101000a81548160ff02191690831515021790555060608201518160020160016101000a81548160ff02191690831515021790555050505050565b61092a610c84565b610932610f62565b6002600480549050101561094557600080fd5b61094d610ff5565b565b6000809054906101000a900473ffffffffffffffffffffffffffffffffffffffff1681565b6005818154811061098157fe5b9060005260206000209060030201600091509050806000018054600181600116156101000203166002900480601f016020809104026020016040519081016040528092919081815260200182805460018160011615610100020316600290048015610a2d5780601f10610a0257610100808354040283529160200191610a2d565b820191906000526020600020905b815481529060010190602001808311610a1057829003601f168201915b5050505050908060010154908060020160009054906101000a900460ff16908060020160019054906101000a900460ff16905084565b60026020528060005260406000206000915090508060000160009054906101000a900460ff16908060010154908060020154905083565b6000809054906101000a900473ffffffffffffffffffffffffffffffffffffffff1673ffffffffffffffffffffffffffffffffffffffff163373ffffffffffffffffffffffffffffffffffffffff1614610af357600080fd5b600260008273ffffffffffffffffffffffffffffffffffffffff1673ffffffffffffffffffffffffffffffffffffffff16815260200190815260200160002060000160009054906101000a900460ff1615610b4d57600080fd5b60038190806001815401808255809150509060018203906000526020600020016000909192909190916101000a81548173ffffffffffffffffffffffffffffffffffffffff021916908373ffffffffffffffffffffffffffffffffffffffff160217905550506001600260008373ffffffffffffffffffffffffffffffffffffffff1673ffffffffffffffffffffffffffffffffffffffff1681526020019081526020016000206002018190555050565b6000809054906101000a900473ffffffffffffffffffffffffffffffffffffffff1673ffffffffffffffffffffffffffffffffffffffff163373ffffffffffffffffffffffffffffffffffffffff1614610c5757600080fd5b6001600960006101000a81548160ff021916908315150217905550610c7a611045565b610c82610ff5565b565b600460405180608001604052806040518060400160405280600681526020017f6d696368656c000000000000000000000000000000000000000000000000000081525081526020016000815260200160001515815260200160001515815250908060018154018082558091505090600182039060005260206000209060030201600090919290919091506000820151816000019080519060200190610d2a929190611e0b565b506020820151816001015560408201518160020160006101000a81548160ff02191690831515021790555060608201518160020160016101000a81548160ff021916908315150217905550505050600460405180608001604052806040518060400160405280600681526020017f62696368656c000000000000000000000000000000000000000000000000000081525081526020016000815260200160001515815260200160001515815250908060018154018082558091505090600182039060005260206000209060030201600090919290919091506000820151816000019080519060200190610e1e929190611e0b565b506020820151816001015560408201518160020160006101000a81548160ff02191690831515021790555060608201518160020160016101000a81548160ff021916908315150217905550505050600460405180608001604052806040518060400160405280600681526020017f79696368656c000000000000000000000000000000000000000000000000000081525081526020016000815260200160001515815260200160001515815250908060018154018082558091505090600182039060005260206000209060030201600090919290919091506000820151816000019080519060200190610f12929190611e0b565b506020820151816001015560408201518160020160006101000a81548160ff02191690831515021790555060608201518160020160016101000a81548160ff021916908315150217905550505050565b610f7f73ca35b7d915458ef540ade6068dfe2f44e8fa733c610a9a565b610f9c7314723a09acff6d2a60dcdf7aa4aff308fddc160c610a9a565b610fb9734b0897b0513fdc7c541b6d9d7e929c4e5364d2db610a9a565b610fd673583031d1113ad414f02576bd6afabfb302140225610a9a565b610ff373dd870fa1b7c4700f2bd7f44238821c26f7392148610a9a565b565b610ffd611775565b611043576110096118f0565b6000600960006101000a81548160ff02191690831515021790555061102c6119a5565b60026005805490501461104257611041611b60565b5b5b565b600960009054906101000a900460ff1661105e57600080fd5b611066611e8b565b60008090505b6005805490508110156113445760006001820190505b600580549050811015611336576005818154811061109c57fe5b906000526020600020906003020160010154600583815481106110bb57fe5b906000526020600020906003020160010154101561132957600582815481106110e057fe5b9060005260206000209060030201604051806080016040529081600082018054600181600116156101000203166002900480601f0160208091040260200160405190810160405280929190818152602001828054600181600116156101000203166002900480156111925780601f1061116757610100808354040283529160200191611192565b820191906000526020600020905b81548152906001019060200180831161117557829003601f168201915b50505050508152602001600182015481526020016002820160009054906101000a900460ff161515151581526020016002820160019054906101000a900460ff1615151515815250509250600581815481106111ea57fe5b90600052602060002090600302016005838154811061120557fe5b90600052602060002090600302016000820181600001908054600181600116156101000203166002900461123a929190611eb7565b50600182015481600101556002820160009054906101000a900460ff168160020160006101000a81548160ff0219169083151502179055506002820160019054906101000a900460ff168160020160016101000a81548160ff02191690831515021790555090505082600582815481106112b057fe5b906000526020600020906003020160008201518160000190805190602001906112da929190611e0b565b506020820151816001015560408201518160020160006101000a81548160ff02191690831515021790555060608201518160020160016101000a81548160ff0219169083151502179055509050505b8080600101915050611082565b50808060010191505061106c565b5060008060008090505b6004805490508110156116935760006004828154811061136a57fe5b9060005260206000209060030201600101819055506114f66004828154811061138f57fe5b90600052602060002090600302016000018054600181600116156101000203166002900480601f0160208091040260200160405190810160405280929190818152602001828054600181600116156101000203166002900480156114345780601f1061140957610100808354040283529160200191611434565b820191906000526020600020905b81548152906001019060200180831161141757829003601f168201915b5050505050600560008154811061144757fe5b90600052602060002090600302016000018054600181600116156101000203166002900480601f0160208091040260200160405190810160405280929190818152602001828054600181600116156101000203166002900480156114ec5780601f106114c1576101008083540402835291602001916114ec565b820191906000526020600020905b8154815290600101906020018083116114cf57829003601f168201915b5050505050611d1c565b156114ff578092505b61167d6004828154811061150f57fe5b90600052602060002090600302016000018054600181600116156101000203166002900480601f0160208091040260200160405190810160405280929190818152602001828054600181600116156101000203166002900480156115b45780601f10611589576101008083540402835291602001916115b4565b820191906000526020600020905b81548152906001019060200180831161159757829003601f168201915b50505050506005600160058054905003815481106115ce57fe5b90600052602060002090600302016000018054600181600116156101000203166002900480601f0160208091040260200160405190810160405280929190818152602001828054600181600116156101000203166002900480156116735780601f1061164857610100808354040283529160200191611673565b820191906000526020600020905b81548152906001019060200180831161165657829003601f168201915b5050505050611d1c565b15611686578091505b808060010191505061134e565b50600481815481106116a157fe5b906000526020600020906003020160020160009054906101000a900460ff1615611738576001600482815481106116d457fe5b906000526020600020906003020160020160016101000a81548160ff02191690831515021790555060006004838154811061170b57fe5b906000526020600020906003020160020160006101000a81548160ff021916908315150217905550611770565b60016004828154811061174757fe5b906000526020600020906003020160020160006101000a81548160ff0219169083151502179055505b505050565b60008060009050600080905060008090505b6004805490508110156118c457600481815481106117a157fe5b906000526020600020906003020160020160019054906101000a900460ff166118b757600481815481106117d157fe5b906000526020600020906003020160020160009054906101000a900460ff166118ad576004818154811061180157fe5b9060005260206000209060030201600660008201816000019080546001816001161561010002031660029004611838929190611eb7565b50600182015481600101556002820160009054906101000a900460ff168160020160006101000a81548160ff0219169083151502179055506002820160019054906101000a900460ff168160020160016101000a81548160ff02191690831515021790555090505082806001019350506118b6565b81806001019250505b5b8080600101915050611787565b50600181111580156118d65750600182145b156118e6576001925050506118ed565b6000925050505b90565b60008090505b6003805490508110156119a2576000600260006003848154811061191657fe5b9060005260206000200160009054906101000a900473ffffffffffffffffffffffffffffffffffffffff1673ffffffffffffffffffffffffffffffffffffffff1673ffffffffffffffffffffffffffffffffffffffff16815260200190815260200160002060000160006101000a81548160ff02191690831515021790555080806001019150506118f6565b50565b6040518060400160405280600681526020017f6c6f6f7365720000000000000000000000000000000000000000000000000000815250600190805190602001906119f0929190611f3e565b50600560006119ff9190611fbe565b60008090505b600480549050811015611b5d5760048181548110611a1f57fe5b906000526020600020906003020160020160009054906101000a900460ff168015611a73575060048181548110611a5257fe5b906000526020600020906003020160020160019054906101000a900460ff16155b15611b5057600560048281548110611a8757fe5b90600052602060002090600302019080600181540180825580915050906001820390600052602060002090600302016000909192909190915060008201816000019080546001816001161561010002031660029004611ae7929190611eb7565b50600182015481600101556002820160009054906101000a900460ff168160020160006101000a81548160ff0219169083151502179055506002820160019054906101000a900460ff168160020160016101000a81548160ff0219169083151502179055505050505b8080600101915050611a05565b50565b6040518060400160405280600681526020017f77696e6e6572000000000000000000000000000000000000000000000000000081525060019080519060200190611bab929190611f3e565b5060056000611bba9190611fbe565b60008090505b600480549050811015611d195760048181548110611bda57fe5b906000526020600020906003020160020160009054906101000a900460ff16158015611c2f575060048181548110611c0e57fe5b906000526020600020906003020160020160019054906101000a900460ff16155b15611d0c57600560048281548110611c4357fe5b90600052602060002090600302019080600181540180825580915050906001820390600052602060002090600302016000909192909190915060008201816000019080546001816001161561010002031660029004611ca3929190611eb7565b50600182015481600101556002820160009054906101000a900460ff168160020160006101000a81548160ff0219169083151502179055506002820160019054906101000a900460ff168160020160016101000a81548160ff0219169083151502179055505050505b8080600101915050611bc0565b50565b6000816040516020018082805190602001908083835b60208310611d555780518252602082019150602081019050602083039250611d32565b6001836020036101000a03801982511681845116808217855250505050505090500191505060405160208183030381529060405280519060200120836040516020018082805190602001908083835b60208310611dc75780518252602082019150602081019050602083039250611da4565b6001836020036101000a0380198251168184511680821785525050505050509050019150506040516020818303038152906040528051906020012014905092915050565b828054600181600116156101000203166002900490600052602060002090601f016020900481019282601f10611e4c57805160ff1916838001178555611e7a565b82800160010185558215611e7a579182015b82811115611e79578251825591602001919060010190611e5e565b5b509050611e879190611fe2565b5090565b604051806080016040528060608152602001600081526020016000151581526020016000151581525090565b828054600181600116156101000203166002900490600052602060002090601f016020900481019282601f10611ef05780548555611f2d565b82800160010185558215611f2d57600052602060002091601f016020900482015b82811115611f2c578254825591600101919060010190611f11565b5b509050611f3a9190611fe2565b5090565b828054600181600116156101000203166002900490600052602060002090601f016020900481019282601f10611f7f57805160ff1916838001178555611fad565b82800160010185558215611fad579182015b82811115611fac578251825591602001919060010190611f91565b5b509050611fba9190611fe2565b5090565b5080546000825560030290600052602060002090810190611fdf9190612007565b50565b61200491905b80821115612000576000816000905550600101611fe8565b5090565b90565b61206391905b8082111561205f57600080820160006120269190612066565b60018201600090556002820160006101000a81549060ff02191690556002820160016101000a81549060ff02191690555060030161200d565b5090565b90565b50805460018160011615610100020316600290046000825580601f1061208c57506120ab565b601f0160209004906000526020600020908101906120aa9190611fe2565b5b5056fea265627a7a7231582024584e40de9c5fb8ff0093dd01904a416e4a4d1bebcf69e8639f43c122cc25ba64736f6c634300050c0032",
  "source": "pragma solidity ^0.5.12;\n\ncontract VSElection {\n    struct Candidate {\n        string name;\n        uint voteCount;\n        bool isLoser;\n        bool isEliminated;\n    }\n\n    struct Voter {\n        bool hasVoted;\n        uint voteIndex;\n        uint weight;\n    }\n\n    address public owner;\n    string public name;\n    mapping(address => Voter) public voters;\n    address [] votersAddress;\n    Candidate[] public candidates;\n    Candidate[] public bracket;\n    Candidate winner;\n\n    //uint public auctionEnd;\n    bool isFinished;\n    uint roundCount = 0;\n\n    event VSElectionResult(string name, uint voteCount);\n\n    constructor (/*string memory _name, uint durationMinute*/) public {\n        owner =  msg.sender;\n        name = \"winner\";\n        //auctionEnd = now + (durationMinute * 1 minutes);\n    }\n\n    function populateCandidates() private {\n        candidates.push(Candidate(\"michel\", 0, false, false));\n        candidates.push(Candidate(\"bichel\", 0, false, false));\n        candidates.push(Candidate(\"yichel\", 0, false, false));\n        //candidates.push(Candidate(\"tichel\", 0, false, false));\n    }\n\n    function addCandidate(string memory _name) public {\n        require(msg.sender == owner);\n        candidates.push(Candidate(_name, 0, false, false));\n    }\n\n    function populateAuthorization() private {\n        authorize(0xCA35b7d915458EF540aDe6068dFe2F44E8fa733c);\n        authorize(0x14723A09ACff6D2A60DcdF7aA4AFf308FDDC160C);\n        authorize(0x4B0897b0513fdC7C541B6d9D7E929C4e5364D2dB);\n        authorize(0x583031D1113aD414F02576BD6afaBfb302140225);\n        authorize(0xdD870fA1b7C4700F2BD7f44238821C26f7392148);\n    }\n\n    function authorize(address voter) public {\n        require(msg.sender == owner);\n        require(!voters[voter].hasVoted);\n\n        votersAddress.push(voter);\n        voters[voter].weight = 1;\n    }\n\n    function vote(uint voteIndex) public {\n        /*require(now < auctionEnd);*/\n        require(!voters[msg.sender].hasVoted);\n        require(voters[msg.sender].weight >= 1);\n        require(!isFinished);\n\n        voters[msg.sender].hasVoted = true;\n        voters[msg.sender].voteIndex = voteIndex;\n\n        candidates[voteIndex].voteCount += voters[msg.sender].weight;\n    }\n\n    function end() public {\n        require(msg.sender == owner);\n        //require(now >= auctionEnd);\n\n        isFinished = true;\n        sortBracket();\n        newRound();\n    }\n\n    function startElection() public {\n        populateCandidates();\n        populateAuthorization();\n        require(candidates.length >= 2);\n        newRound();\n    }\n\n    function checkWinner() private returns(bool) {\n        uint winnerCount = 0;\n        uint looserCount = 0;\n        for(uint i = 0; i < candidates.length; i++) {\n            if(!candidates[i].isEliminated) {\n                if(!candidates[i].isLoser) {\n                    winner = candidates[i];\n                    winnerCount++;\n                } else {\n                    looserCount++;\n                }\n            }\n        }\n\n        //TODO: rparer la condition\n        if(looserCount <= 1 && winnerCount == 1)\n        return true;\n        else\n        return false;\n    }\n\n    function resetVoters() private {\n        for(uint i = 0; i < votersAddress.length; i++) {\n            voters[votersAddress[i]].hasVoted = false;\n        }\n    }\n\n    function newRound() private {\n        if(!checkWinner()) {\n            resetVoters();\n            isFinished = false;\n            setBracketLosers();\n            if(bracket.length != 2) {\n                setBracketWinners();\n            }\n        }\n    }\n\n    function setBracketLosers() private {\n        name = \"looser\";\n        delete bracket;\n        for(uint i = 0; i < candidates.length; i++) {\n            if(candidates[i].isLoser && !candidates[i].isEliminated)\n                bracket.push(candidates[i]);\n        }\n    }\n\n    function setBracketWinners() private {\n        name = \"winner\";\n        delete bracket;\n        for(uint i = 0; i < candidates.length; i++) {\n            if(!candidates[i].isLoser && !candidates[i].isEliminated)\n                bracket.push(candidates[i]);\n        }\n    }\n\n    function sortBracket() private {\n        require(isFinished);\n\n        Candidate memory temp;\n        for(uint i = 0; i < bracket.length; i++) {\n            for(uint j = i+1; j < bracket.length; j++) {\n                if(bracket[i].voteCount < bracket[j].voteCount) {\n                    temp = bracket[i];\n                    bracket[i] = bracket[j];\n                    bracket[j] = temp;\n                }\n            }\n        }\n\n        uint firstIndex;\n        uint lastIndex;\n        for(uint i = 0; i < candidates.length; i++) {\n            candidates[i].voteCount = 0;\n            if(compareStrings(candidates[i].name, bracket[0].name)) {\n                firstIndex = i;\n            }\n\n            if(compareStrings(candidates[i].name, bracket[bracket.length - 1].name)) {\n                lastIndex = i;\n            }\n        }\n\n        if(candidates[lastIndex].isLoser) {\n            candidates[lastIndex].isEliminated = true;\n            candidates[firstIndex].isLoser = false;\n        } else {\n            candidates[lastIndex].isLoser = true;\n        }\n    }\n\n    function compareStrings (string memory a, string memory b) private pure returns (bool) {\n        return (keccak256(abi.encodePacked((a))) == keccak256(abi.encodePacked((b))) );\n    }\n}\n",
  "sourcePath": "C:/Users/Andrea/Desktop/WORKSPACE-GIT/election-2019_update/contracts/VSElection.sol",
  "compiler": {
    "name": "solc",
    "version": "0.5.12+commit.7709ece9.Emscripten.clang"
  },
  "schemaVersion": "3.0.19",
  "updatedAt": "2019-12-04T14:29:04.181Z",
  "networkType": "ethereum",
  "devdoc": {
    "methods": {}
  },
  "userdoc": {
    "methods": {}
  }
}